{
  "contractName": "ScooterRent",
  "abi": [
    {
      "inputs": [],
      "name": "OnlyNotRentedScooter",
      "type": "error"
    },
    {
      "inputs": [],
      "name": "scooterCount",
      "outputs": [
        {
          "internalType": "uint256",
          "name": "",
          "type": "uint256"
        }
      ],
      "stateMutability": "view",
      "type": "function",
      "constant": true
    },
    {
      "inputs": [
        {
          "internalType": "uint256",
          "name": "",
          "type": "uint256"
        }
      ],
      "name": "scooters",
      "outputs": [
        {
          "internalType": "uint256",
          "name": "id",
          "type": "uint256"
        },
        {
          "internalType": "string",
          "name": "name",
          "type": "string"
        },
        {
          "internalType": "string",
          "name": "geoId",
          "type": "string"
        },
        {
          "internalType": "bool",
          "name": "isRent",
          "type": "bool"
        },
        {
          "internalType": "address",
          "name": "rentBy",
          "type": "address"
        },
        {
          "internalType": "uint256",
          "name": "rentStartTime",
          "type": "uint256"
        }
      ],
      "stateMutability": "view",
      "type": "function",
      "constant": true
    },
    {
      "inputs": [
        {
          "internalType": "address",
          "name": "",
          "type": "address"
        },
        {
          "internalType": "uint256",
          "name": "",
          "type": "uint256"
        }
      ],
      "name": "userToScooters",
      "outputs": [
        {
          "internalType": "uint256",
          "name": "id",
          "type": "uint256"
        },
        {
          "internalType": "string",
          "name": "name",
          "type": "string"
        },
        {
          "internalType": "string",
          "name": "geoId",
          "type": "string"
        },
        {
          "internalType": "bool",
          "name": "isRent",
          "type": "bool"
        },
        {
          "internalType": "address",
          "name": "rentBy",
          "type": "address"
        },
        {
          "internalType": "uint256",
          "name": "rentStartTime",
          "type": "uint256"
        }
      ],
      "stateMutability": "view",
      "type": "function",
      "constant": true
    },
    {
      "inputs": [
        {
          "internalType": "uint256",
          "name": "scooterId",
          "type": "uint256"
        }
      ],
      "name": "checkRentPossibility",
      "outputs": [
        {
          "internalType": "bool",
          "name": "",
          "type": "bool"
        }
      ],
      "stateMutability": "view",
      "type": "function",
      "constant": true
    },
    {
      "inputs": [
        {
          "internalType": "uint256",
          "name": "scooterId",
          "type": "uint256"
        }
      ],
      "name": "rentScooter",
      "outputs": [],
      "stateMutability": "nonpayable",
      "type": "function"
    },
    {
      "inputs": [
        {
          "internalType": "uint256",
          "name": "scooterId",
          "type": "uint256"
        }
      ],
      "name": "getRentTime",
      "outputs": [
        {
          "internalType": "uint256",
          "name": "",
          "type": "uint256"
        }
      ],
      "stateMutability": "view",
      "type": "function",
      "constant": true
    },
    {
      "inputs": [
        {
          "internalType": "uint256",
          "name": "scooterId",
          "type": "uint256"
        }
      ],
      "name": "finishRent",
      "outputs": [],
      "stateMutability": "nonpayable",
      "type": "function"
    },
    {
      "inputs": [
        {
          "internalType": "string",
          "name": "name",
          "type": "string"
        },
        {
          "internalType": "string",
          "name": "geoId",
          "type": "string"
        }
      ],
      "name": "addScooter",
      "outputs": [],
      "stateMutability": "nonpayable",
      "type": "function"
    },
    {
      "inputs": [
        {
          "internalType": "uint256",
          "name": "id",
          "type": "uint256"
        },
        {
          "components": [
            {
              "internalType": "uint256",
              "name": "id",
              "type": "uint256"
            },
            {
              "internalType": "string",
              "name": "name",
              "type": "string"
            },
            {
              "internalType": "string",
              "name": "geoId",
              "type": "string"
            },
            {
              "internalType": "bool",
              "name": "isRent",
              "type": "bool"
            },
            {
              "internalType": "address",
              "name": "rentBy",
              "type": "address"
            },
            {
              "internalType": "uint256",
              "name": "rentStartTime",
              "type": "uint256"
            }
          ],
          "internalType": "struct ScooterRent.Scooter[]",
          "name": "scootersArr",
          "type": "tuple[]"
        }
      ],
      "name": "getScooterIdxFromArray",
      "outputs": [
        {
          "internalType": "uint256",
          "name": "",
          "type": "uint256"
        }
      ],
      "stateMutability": "pure",
      "type": "function",
      "constant": true
    },
    {
      "inputs": [
        {
          "internalType": "uint256",
          "name": "id",
          "type": "uint256"
        }
      ],
      "name": "getScooterIdx",
      "outputs": [
        {
          "internalType": "uint256",
          "name": "",
          "type": "uint256"
        }
      ],
      "stateMutability": "view",
      "type": "function",
      "constant": true
    },
    {
      "inputs": [
        {
          "internalType": "address",
          "name": "userId",
          "type": "address"
        }
      ],
      "name": "getUserScooters",
      "outputs": [
        {
          "components": [
            {
              "internalType": "uint256",
              "name": "id",
              "type": "uint256"
            },
            {
              "internalType": "string",
              "name": "name",
              "type": "string"
            },
            {
              "internalType": "string",
              "name": "geoId",
              "type": "string"
            },
            {
              "internalType": "bool",
              "name": "isRent",
              "type": "bool"
            },
            {
              "internalType": "address",
              "name": "rentBy",
              "type": "address"
            },
            {
              "internalType": "uint256",
              "name": "rentStartTime",
              "type": "uint256"
            }
          ],
          "internalType": "struct ScooterRent.Scooter[]",
          "name": "",
          "type": "tuple[]"
        }
      ],
      "stateMutability": "view",
      "type": "function",
      "constant": true
    },
    {
      "inputs": [
        {
          "internalType": "uint256",
          "name": "id",
          "type": "uint256"
        }
      ],
      "name": "getScooter",
      "outputs": [
        {
          "components": [
            {
              "internalType": "uint256",
              "name": "id",
              "type": "uint256"
            },
            {
              "internalType": "string",
              "name": "name",
              "type": "string"
            },
            {
              "internalType": "string",
              "name": "geoId",
              "type": "string"
            },
            {
              "internalType": "bool",
              "name": "isRent",
              "type": "bool"
            },
            {
              "internalType": "address",
              "name": "rentBy",
              "type": "address"
            },
            {
              "internalType": "uint256",
              "name": "rentStartTime",
              "type": "uint256"
            }
          ],
          "internalType": "struct ScooterRent.Scooter",
          "name": "",
          "type": "tuple"
        }
      ],
      "stateMutability": "view",
      "type": "function",
      "constant": true
    },
    {
      "inputs": [],
      "name": "getScooters",
      "outputs": [
        {
          "components": [
            {
              "internalType": "uint256",
              "name": "id",
              "type": "uint256"
            },
            {
              "internalType": "string",
              "name": "name",
              "type": "string"
            },
            {
              "internalType": "string",
              "name": "geoId",
              "type": "string"
            },
            {
              "internalType": "bool",
              "name": "isRent",
              "type": "bool"
            },
            {
              "internalType": "address",
              "name": "rentBy",
              "type": "address"
            },
            {
              "internalType": "uint256",
              "name": "rentStartTime",
              "type": "uint256"
            }
          ],
          "internalType": "struct ScooterRent.Scooter[]",
          "name": "",
          "type": "tuple[]"
        }
      ],
      "stateMutability": "view",
      "type": "function",
      "constant": true
    },
    {
      "inputs": [
        {
          "internalType": "uint256",
          "name": "id",
          "type": "uint256"
        }
      ],
      "name": "deleteScooter",
      "outputs": [],
      "stateMutability": "nonpayable",
      "type": "function"
    },
    {
      "inputs": [
        {
          "internalType": "uint256",
          "name": "id",
          "type": "uint256"
        },
        {
          "components": [
            {
              "internalType": "uint256",
              "name": "id",
              "type": "uint256"
            },
            {
              "internalType": "string",
              "name": "name",
              "type": "string"
            },
            {
              "internalType": "string",
              "name": "geoId",
              "type": "string"
            },
            {
              "internalType": "bool",
              "name": "isRent",
              "type": "bool"
            },
            {
              "internalType": "address",
              "name": "rentBy",
              "type": "address"
            },
            {
              "internalType": "uint256",
              "name": "rentStartTime",
              "type": "uint256"
            }
          ],
          "internalType": "struct ScooterRent.Scooter",
          "name": "_newScooter",
          "type": "tuple"
        }
      ],
      "name": "editScooter",
      "outputs": [],
      "stateMutability": "nonpayable",
      "type": "function"
    }
  ],
  "bytecode": "0x6080604052600160005534801561001557600080fd5b50612c2e806100256000396000f3fe608060405234801561001057600080fd5b50600436106100f55760003560e01c8063b1d73e5d11610097578063e09b171511610066578063e09b1715146102a8578063e7904a80146102c6578063f264a088146102fb578063fc265a9314610317576100f5565b8063b1d73e5d14610210578063ba4b4c311461022c578063c0c9887d1461025c578063ddbbe0d01461028c576100f5565b80637d2d3206116100d35780637d2d32061461018a5780638afa23cc146101a65780639405a7ba146101c4578063b06c1abb146101e0576100f5565b80633323c0c2146100fa578063543964b91461012a578063650e10ef1461015a575b600080fd5b610114600480360381019061010f91906122aa565b61034c565b6040516101219190612748565b60405180910390f35b610144600480360381019061013f91906123bc565b610593565b60405161015191906127c5565b60405180910390f35b610174600480360381019061016f91906123e5565b6107ac565b60405161018191906127e7565b60405180910390f35b6101a4600480360381019061019f91906123bc565b610873565b005b6101ae610c33565b6040516101bb91906127e7565b60405180910390f35b6101de60048036038101906101d991906123bc565b610c39565b005b6101fa60048036038101906101f591906123bc565b6110c9565b604051610207919061276a565b60405180910390f35b61022a60048036038101906102259190612439565b6111ac565b005b610246600480360381019061024191906123bc565b6112bf565b60405161025391906127e7565b60405180910390f35b610276600480360381019061027191906123bc565b611321565b60405161028391906127e7565b60405180910390f35b6102a660048036038101906102a1919061230f565b6113f2565b005b6102b0611539565b6040516102bd9190612748565b60405180910390f35b6102e060048036038101906102db91906123bc565b611741565b6040516102f296959493929190612802565b60405180910390f35b610315600480360381019061031091906123bc565b6118ca565b005b610331600480360381019061032c91906122d3565b611bc0565b60405161034396959493929190612802565b60405180910390f35b6060600360008373ffffffffffffffffffffffffffffffffffffffff1673ffffffffffffffffffffffffffffffffffffffff168152602001908152602001600020805480602002602001604051908101604052809291908181526020016000905b8282101561058857838290600052602060002090600502016040518060c0016040529081600082015481526020016001820180546103ea90612a17565b80601f016020809104026020016040519081016040528092919081815260200182805461041690612a17565b80156104635780601f1061043857610100808354040283529160200191610463565b820191906000526020600020905b81548152906001019060200180831161044657829003601f168201915b5050505050815260200160028201805461047c90612a17565b80601f01602080910402602001604051908101604052809291908181526020018280546104a890612a17565b80156104f55780601f106104ca576101008083540402835291602001916104f5565b820191906000526020600020905b8154815290600101906020018083116104d857829003601f168201915b505050505081526020016003820160009054906101000a900460ff161515151581526020016003820160019054906101000a900473ffffffffffffffffffffffffffffffffffffffff1673ffffffffffffffffffffffffffffffffffffffff1673ffffffffffffffffffffffffffffffffffffffff168152602001600482015481525050815260200190600101906103ad565b505050509050919050565b61059b611d56565b60006105a683611321565b9050600181815481106105e2577f4e487b7100000000000000000000000000000000000000000000000000000000600052603260045260246000fd5b90600052602060002090600502016040518060c00160405290816000820154815260200160018201805461061590612a17565b80601f016020809104026020016040519081016040528092919081815260200182805461064190612a17565b801561068e5780601f106106635761010080835404028352916020019161068e565b820191906000526020600020905b81548152906001019060200180831161067157829003601f168201915b505050505081526020016002820180546106a790612a17565b80601f01602080910402602001604051908101604052809291908181526020018280546106d390612a17565b80156107205780601f106106f557610100808354040283529160200191610720565b820191906000526020600020905b81548152906001019060200180831161070357829003601f168201915b505050505081526020016003820160009054906101000a900460ff161515151581526020016003820160019054906101000a900473ffffffffffffffffffffffffffffffffffffffff1673ffffffffffffffffffffffffffffffffffffffff1673ffffffffffffffffffffffffffffffffffffffff168152602001600482015481525050915050919050565b6000806000805b845181101561082757858582815181106107f6577f4e487b7100000000000000000000000000000000000000000000000000000000600052603260045260246000fd5b60200260200101516000015114156108145760019150809250610827565b808061081f90612a7a565b9150506107b3565b5080610868576040517f08c379a000000000000000000000000000000000000000000000000000000000815260040161085f90612785565b60405180910390fd5b819250505092915050565b8060003073ffffffffffffffffffffffffffffffffffffffff1663543964b9836040518263ffffffff1660e01b81526004016108af91906127e7565b60006040518083038186803b1580156108c757600080fd5b505afa1580156108db573d6000803e3d6000fd5b505050506040513d6000823e3d601f19601f82011682018060405250810190610904919061237b565b905060011515816060015115151415610949576040517f5ca4211700000000000000000000000000000000000000000000000000000000815260040160405180910390fd5b600061095484611321565b90506001808281548110610991577f4e487b7100000000000000000000000000000000000000000000000000000000600052603260045260246000fd5b906000526020600020906005020160030160006101000a81548160ff02191690831515021790555033600182815481106109f4577f4e487b7100000000000000000000000000000000000000000000000000000000600052603260045260246000fd5b906000526020600020906005020160030160016101000a81548173ffffffffffffffffffffffffffffffffffffffff021916908373ffffffffffffffffffffffffffffffffffffffff1602179055504260018281548110610a7e577f4e487b7100000000000000000000000000000000000000000000000000000000600052603260045260246000fd5b906000526020600020906005020160040181905550600360003373ffffffffffffffffffffffffffffffffffffffff1673ffffffffffffffffffffffffffffffffffffffff16815260200190815260200160002060018281548110610b0c577f4e487b7100000000000000000000000000000000000000000000000000000000600052603260045260246000fd5b90600052602060002090600502019080600181540180825580915050600190039060005260206000209060050201600090919091909150600082015481600001556001820181600101908054610b6190612a17565b610b6c929190611da4565b506002820181600201908054610b8190612a17565b610b8c929190611da4565b506003820160009054906101000a900460ff168160030160006101000a81548160ff0219169083151502179055506003820160019054906101000a900473ffffffffffffffffffffffffffffffffffffffff168160030160016101000a81548173ffffffffffffffffffffffffffffffffffffffff021916908373ffffffffffffffffffffffffffffffffffffffff16021790555060048201548160040155505050505050565b60005481565b6000610c4482611321565b9050600060018281548110610c82577f4e487b7100000000000000000000000000000000000000000000000000000000600052603260045260246000fd5b906000526020600020906005020160030160006101000a81548160ff021916908315150217905550600060018281548110610ce6577f4e487b7100000000000000000000000000000000000000000000000000000000600052603260045260246000fd5b906000526020600020906005020160030160016101000a81548173ffffffffffffffffffffffffffffffffffffffff021916908373ffffffffffffffffffffffffffffffffffffffff160217905550600060018281548110610d71577f4e487b7100000000000000000000000000000000000000000000000000000000600052603260045260246000fd5b9060005260206000209060050201600401819055506000610fcf83600360003373ffffffffffffffffffffffffffffffffffffffff1673ffffffffffffffffffffffffffffffffffffffff168152602001908152602001600020805480602002602001604051908101604052809291908181526020016000905b82821015610fc657838290600052602060002090600502016040518060c001604052908160008201548152602001600182018054610e2890612a17565b80601f0160208091040260200160405190810160405280929190818152602001828054610e5490612a17565b8015610ea15780601f10610e7657610100808354040283529160200191610ea1565b820191906000526020600020905b815481529060010190602001808311610e8457829003601f168201915b50505050508152602001600282018054610eba90612a17565b80601f0160208091040260200160405190810160405280929190818152602001828054610ee690612a17565b8015610f335780601f10610f0857610100808354040283529160200191610f33565b820191906000526020600020905b815481529060010190602001808311610f1657829003601f168201915b505050505081526020016003820160009054906101000a900460ff161515151581526020016003820160019054906101000a900473ffffffffffffffffffffffffffffffffffffffff1673ffffffffffffffffffffffffffffffffffffffff1673ffffffffffffffffffffffffffffffffffffffff16815260200160048201548152505081526020019060010190610deb565b505050506107ac565b9050600360003373ffffffffffffffffffffffffffffffffffffffff1673ffffffffffffffffffffffffffffffffffffffff1681526020019081526020016000208181548110611048577f4e487b7100000000000000000000000000000000000000000000000000000000600052603260045260246000fd5b906000526020600020906005020160008082016000905560018201600061106f9190611e31565b60028201600061107f9190611e31565b6003820160006101000a81549060ff02191690556003820160016101000a81549073ffffffffffffffffffffffffffffffffffffffff021916905560048201600090555050505050565b60008160003073ffffffffffffffffffffffffffffffffffffffff1663543964b9836040518263ffffffff1660e01b815260040161110791906127e7565b60006040518083038186803b15801561111f57600080fd5b505afa158015611133573d6000803e3d6000fd5b505050506040513d6000823e3d601f19601f8201168201806040525081019061115c919061237b565b9050600115158160600151151514156111a1576040517f5ca4211700000000000000000000000000000000000000000000000000000000815260040160405180910390fd5b600192505050919050565b60006111b783611321565b905081600182815481106111f4577f4e487b7100000000000000000000000000000000000000000000000000000000600052603260045260246000fd5b9060005260206000209060050201600082015181600001556020820151816001019080519060200190611228929190611e71565b506040820151816002019080519060200190611245929190611e71565b5060608201518160030160006101000a81548160ff02191690831515021790555060808201518160030160016101000a81548173ffffffffffffffffffffffffffffffffffffffff021916908373ffffffffffffffffffffffffffffffffffffffff16021790555060a08201518160040155905050505050565b6000806112cb83611321565b905060018181548110611307577f4e487b7100000000000000000000000000000000000000000000000000000000600052603260045260246000fd5b906000526020600020906005020160040154915050919050565b6000806000805b6001805490508110156113a7578460018281548110611370577f4e487b7100000000000000000000000000000000000000000000000000000000600052603260045260246000fd5b906000526020600020906005020160000154141561139457600191508092506113a7565b808061139f90612a7a565b915050611328565b50806113e8576040517f08c379a00000000000000000000000000000000000000000000000000000000081526004016113df90612785565b60405180910390fd5b8192505050919050565b60016040518060c001604052806000548152602001848152602001838152602001600015158152602001600073ffffffffffffffffffffffffffffffffffffffff1681526020016000815250908060018154018082558091505060019003906000526020600020906005020160009091909190915060008201518160000155602082015181600101908051906020019061148d929190611e71565b5060408201518160020190805190602001906114aa929190611e71565b5060608201518160030160006101000a81548160ff02191690831515021790555060808201518160030160016101000a81548173ffffffffffffffffffffffffffffffffffffffff021916908373ffffffffffffffffffffffffffffffffffffffff16021790555060a08201518160040155505060008081548092919061153090612a7a565b91905055505050565b60606001805480602002602001604051908101604052809291908181526020016000905b8282101561173857838290600052602060002090600502016040518060c00160405290816000820154815260200160018201805461159a90612a17565b80601f01602080910402602001604051908101604052809291908181526020018280546115c690612a17565b80156116135780601f106115e857610100808354040283529160200191611613565b820191906000526020600020905b8154815290600101906020018083116115f657829003601f168201915b5050505050815260200160028201805461162c90612a17565b80601f016020809104026020016040519081016040528092919081815260200182805461165890612a17565b80156116a55780601f1061167a576101008083540402835291602001916116a5565b820191906000526020600020905b81548152906001019060200180831161168857829003601f168201915b505050505081526020016003820160009054906101000a900460ff161515151581526020016003820160019054906101000a900473ffffffffffffffffffffffffffffffffffffffff1673ffffffffffffffffffffffffffffffffffffffff1673ffffffffffffffffffffffffffffffffffffffff1681526020016004820154815250508152602001906001019061155d565b50505050905090565b6001818154811061175157600080fd5b906000526020600020906005020160009150905080600001549080600101805461177a90612a17565b80601f01602080910402602001604051908101604052809291908181526020018280546117a690612a17565b80156117f35780601f106117c8576101008083540402835291602001916117f3565b820191906000526020600020905b8154815290600101906020018083116117d657829003601f168201915b50505050509080600201805461180890612a17565b80601f016020809104026020016040519081016040528092919081815260200182805461183490612a17565b80156118815780601f1061185657610100808354040283529160200191611881565b820191906000526020600020905b81548152906001019060200180831161186457829003601f168201915b5050505050908060030160009054906101000a900460ff16908060030160019054906101000a900473ffffffffffffffffffffffffffffffffffffffff16908060040154905086565b60006118d582611321565b90506000151560018281548110611915577f4e487b7100000000000000000000000000000000000000000000000000000000600052603260045260246000fd5b906000526020600020906005020160030160009054906101000a900460ff16151514611976576040517f08c379a000000000000000000000000000000000000000000000000000000000815260040161196d906127a5565b60405180910390fd5b60018080805490506119889190612959565b815481106119bf577f4e487b7100000000000000000000000000000000000000000000000000000000600052603260045260246000fd5b906000526020600020906005020160018281548110611a07577f4e487b7100000000000000000000000000000000000000000000000000000000600052603260045260246000fd5b9060005260206000209060050201600082015481600001556001820181600101908054611a3390612a17565b611a3e929190611da4565b506002820181600201908054611a5390612a17565b611a5e929190611da4565b506003820160009054906101000a900460ff168160030160006101000a81548160ff0219169083151502179055506003820160019054906101000a900473ffffffffffffffffffffffffffffffffffffffff168160030160016101000a81548173ffffffffffffffffffffffffffffffffffffffff021916908373ffffffffffffffffffffffffffffffffffffffff160217905550600482015481600401559050506001805480611b38577f4e487b7100000000000000000000000000000000000000000000000000000000600052603160045260246000fd5b6001900381819060005260206000209060050201600080820160009055600182016000611b659190611e31565b600282016000611b759190611e31565b6003820160006101000a81549060ff02191690556003820160016101000a81549073ffffffffffffffffffffffffffffffffffffffff02191690556004820160009055505090555050565b60036020528160005260406000208181548110611bdc57600080fd5b906000526020600020906005020160009150915050806000015490806001018054611c0690612a17565b80601f0160208091040260200160405190810160405280929190818152602001828054611c3290612a17565b8015611c7f5780601f10611c5457610100808354040283529160200191611c7f565b820191906000526020600020905b815481529060010190602001808311611c6257829003601f168201915b505050505090806002018054611c9490612a17565b80601f0160208091040260200160405190810160405280929190818152602001828054611cc090612a17565b8015611d0d5780601f10611ce257610100808354040283529160200191611d0d565b820191906000526020600020905b815481529060010190602001808311611cf057829003601f168201915b5050505050908060030160009054906101000a900460ff16908060030160019054906101000a900473ffffffffffffffffffffffffffffffffffffffff16908060040154905086565b6040518060c00160405280600081526020016060815260200160608152602001600015158152602001600073ffffffffffffffffffffffffffffffffffffffff168152602001600081525090565b828054611db090612a17565b90600052602060002090601f016020900481019282611dd25760008555611e20565b82601f10611de35780548555611e20565b82800160010185558215611e2057600052602060002091601f016020900482015b82811115611e1f578254825591600101919060010190611e04565b5b509050611e2d9190611ef7565b5090565b508054611e3d90612a17565b6000825580601f10611e4f5750611e6e565b601f016020900490600052602060002090810190611e6d9190611ef7565b5b50565b828054611e7d90612a17565b90600052602060002090601f016020900481019282611e9f5760008555611ee6565b82601f10611eb857805160ff1916838001178555611ee6565b82800160010185558215611ee6579182015b82811115611ee5578251825591602001919060010190611eca565b5b509050611ef39190611ef7565b5090565b5b80821115611f10576000816000905550600101611ef8565b5090565b6000611f27611f2284612896565b612871565b90508083825260208201905082856020860282011115611f4657600080fd5b60005b85811015611f9057813567ffffffffffffffff811115611f6857600080fd5b808601611f7589826120e8565b85526020850194506020840193505050600181019050611f49565b5050509392505050565b6000611fad611fa8846128c2565b612871565b905082815260208101848484011115611fc557600080fd5b611fd08482856129d5565b509392505050565b6000611feb611fe6846128c2565b612871565b90508281526020810184848401111561200357600080fd5b61200e8482856129e4565b509392505050565b60008135905061202581612bb3565b92915050565b60008151905061203a81612bb3565b92915050565b600082601f83011261205157600080fd5b8135612061848260208601611f14565b91505092915050565b60008135905061207981612bca565b92915050565b60008151905061208e81612bca565b92915050565b600082601f8301126120a557600080fd5b81356120b5848260208601611f9a565b91505092915050565b600082601f8301126120cf57600080fd5b81516120df848260208601611fd8565b91505092915050565b600060c082840312156120fa57600080fd5b61210460c0612871565b9050600061211484828501612280565b600083015250602082013567ffffffffffffffff81111561213457600080fd5b61214084828501612094565b602083015250604082013567ffffffffffffffff81111561216057600080fd5b61216c84828501612094565b60408301525060606121808482850161206a565b606083015250608061219484828501612016565b60808301525060a06121a884828501612280565b60a08301525092915050565b600060c082840312156121c657600080fd5b6121d060c0612871565b905060006121e084828501612295565b600083015250602082015167ffffffffffffffff81111561220057600080fd5b61220c848285016120be565b602083015250604082015167ffffffffffffffff81111561222c57600080fd5b612238848285016120be565b604083015250606061224c8482850161207f565b60608301525060806122608482850161202b565b60808301525060a061227484828501612295565b60a08301525092915050565b60008135905061228f81612be1565b92915050565b6000815190506122a481612be1565b92915050565b6000602082840312156122bc57600080fd5b60006122ca84828501612016565b91505092915050565b600080604083850312156122e657600080fd5b60006122f485828601612016565b925050602061230585828601612280565b9150509250929050565b6000806040838503121561232257600080fd5b600083013567ffffffffffffffff81111561233c57600080fd5b61234885828601612094565b925050602083013567ffffffffffffffff81111561236557600080fd5b61237185828601612094565b9150509250929050565b60006020828403121561238d57600080fd5b600082015167ffffffffffffffff8111156123a757600080fd5b6123b3848285016121b4565b91505092915050565b6000602082840312156123ce57600080fd5b60006123dc84828501612280565b91505092915050565b600080604083850312156123f857600080fd5b600061240685828601612280565b925050602083013567ffffffffffffffff81111561242357600080fd5b61242f85828601612040565b9150509250929050565b6000806040838503121561244c57600080fd5b600061245a85828601612280565b925050602083013567ffffffffffffffff81111561247757600080fd5b612483858286016120e8565b9150509250929050565b6000612499838361260a565b905092915050565b6124aa8161298d565b82525050565b6124b98161298d565b82525050565b60006124ca82612903565b6124d48185612926565b9350836020820285016124e6856128f3565b8060005b858110156125225784840389528151612503858261248d565b945061250e83612919565b925060208a019950506001810190506124ea565b50829750879550505050505092915050565b61253d8161299f565b82525050565b61254c8161299f565b82525050565b600061255d8261290e565b6125678185612937565b93506125778185602086016129e4565b61258081612b50565b840191505092915050565b60006125968261290e565b6125a08185612948565b93506125b08185602086016129e4565b6125b981612b50565b840191505092915050565b60006125d1600a83612948565b91506125dc82612b61565b602082019050919050565b60006125f4600e83612948565b91506125ff82612b8a565b602082019050919050565b600060c083016000830151612622600086018261272a565b506020830151848203602086015261263a8282612552565b915050604083015184820360408601526126548282612552565b91505060608301516126696060860182612534565b50608083015161267c60808601826124a1565b5060a083015161268f60a086018261272a565b508091505092915050565b600060c0830160008301516126b2600086018261272a565b50602083015184820360208601526126ca8282612552565b915050604083015184820360408601526126e48282612552565b91505060608301516126f96060860182612534565b50608083015161270c60808601826124a1565b5060a083015161271f60a086018261272a565b508091505092915050565b612733816129cb565b82525050565b612742816129cb565b82525050565b6000602082019050818103600083015261276281846124bf565b905092915050565b600060208201905061277f6000830184612543565b92915050565b6000602082019050818103600083015261279e816125c4565b9050919050565b600060208201905081810360008301526127be816125e7565b9050919050565b600060208201905081810360008301526127df818461269a565b905092915050565b60006020820190506127fc6000830184612739565b92915050565b600060c0820190506128176000830189612739565b8181036020830152612829818861258b565b9050818103604083015261283d818761258b565b905061284c6060830186612543565b61285960808301856124b0565b61286660a0830184612739565b979650505050505050565b600061287b61288c565b90506128878282612a49565b919050565b6000604051905090565b600067ffffffffffffffff8211156128b1576128b0612b21565b5b602082029050602081019050919050565b600067ffffffffffffffff8211156128dd576128dc612b21565b5b6128e682612b50565b9050602081019050919050565b6000819050602082019050919050565b600081519050919050565b600081519050919050565b6000602082019050919050565b600082825260208201905092915050565b600082825260208201905092915050565b600082825260208201905092915050565b6000612964826129cb565b915061296f836129cb565b92508282101561298257612981612ac3565b5b828203905092915050565b6000612998826129ab565b9050919050565b60008115159050919050565b600073ffffffffffffffffffffffffffffffffffffffff82169050919050565b6000819050919050565b82818337600083830152505050565b60005b83811015612a025780820151818401526020810190506129e7565b83811115612a11576000848401525b50505050565b60006002820490506001821680612a2f57607f821691505b60208210811415612a4357612a42612af2565b5b50919050565b612a5282612b50565b810181811067ffffffffffffffff82111715612a7157612a70612b21565b5b80604052505050565b6000612a85826129cb565b91507fffffffffffffffffffffffffffffffffffffffffffffffffffffffffffffffff821415612ab857612ab7612ac3565b5b600182019050919050565b7f4e487b7100000000000000000000000000000000000000000000000000000000600052601160045260246000fd5b7f4e487b7100000000000000000000000000000000000000000000000000000000600052602260045260246000fd5b7f4e487b7100000000000000000000000000000000000000000000000000000000600052604160045260246000fd5b6000601f19601f8301169050919050565b7f4e6f2053636f6f74657200000000000000000000000000000000000000000000600082015250565b7f53636f6f7465722072656e746564000000000000000000000000000000000000600082015250565b612bbc8161298d565b8114612bc757600080fd5b50565b612bd38161299f565b8114612bde57600080fd5b50565b612bea816129cb565b8114612bf557600080fd5b5056fea26469706673582212207b27a27293923c4cb8b13a6fd2eaaaaa80de644e52ebd260116e23644bf26d1b64736f6c63430008040033",
  "immutableReferences": {},
  "source": "// SPDX-License-Identifier: GPL-3.0\npragma solidity >=0.7.0 <0.9.0;\n\n// uint256 weight; // weight is accumulated by delegation\n// bool voted; // if true, that person already voted\n// address delegate; // person delegated to\n// uint256 vote; // index of the voted proposal\n\ncontract ScooterRent {\n    // struct Coords {\n    //     string lat;\n    //     string lon;\n    // }\n    uint256 public scooterCount = 1;\n\n    struct Scooter {\n        uint256 id;\n        string name;\n        string geoId;\n        bool isRent;\n        address rentBy;\n        uint rentStartTime;\n    }\n    /// You can only rent a free scooter\n    error OnlyNotRentedScooter();\n\n    modifier isAvailableForRent(uint256 scooterId) {\n        Scooter memory scooter = this.getScooter(scooterId);\n        if (scooter.isRent == true) {\n            revert OnlyNotRentedScooter();\n        }\n        _;\n    }\n\n    // event PayScooterRent(address user, uint256 id);\n    Scooter[] public scooters;\n    string private proccesedPays;\n\n    mapping(address => Scooter[]) public userToScooters;\n\n\n    function checkRentPossibility(uint256 scooterId)\n        public\n        view\n        isAvailableForRent(scooterId)\n        returns (bool)\n    {\n        return true;\n    }\n\n    function rentScooter(uint256 scooterId)\n        public\n        isAvailableForRent(scooterId)\n    {\n        uint256 scooterIdx = getScooterIdx(scooterId);\n        scooters[scooterIdx].isRent = true;\n        scooters[scooterIdx].rentBy = msg.sender;\n        scooters[scooterIdx].rentStartTime = block.timestamp;\n\n        userToScooters[msg.sender].push(scooters[scooterIdx]);\n        // emit PayScooterRent(msg.sender, scooterId);\n    }\n\n    function getRentTime (uint256 scooterId) public view returns (uint256){\n        uint256 scooterIdx = getScooterIdx(scooterId);\n        return scooters[scooterIdx].rentStartTime;\n    }\n\n    function finishRent(uint256 scooterId) public {\n        // Scooter[] memory  emptyScootersArr;\n        uint256 scooterIdx = getScooterIdx(scooterId);\n        scooters[scooterIdx].isRent = false;\n        scooters[scooterIdx].rentBy = address(0);\n        scooters[scooterIdx].rentStartTime = 0;\n\n\n        uint deletedIdx = getScooterIdxFromArray(scooterId,userToScooters[msg.sender] );\n        delete userToScooters[msg.sender][deletedIdx];\n\n        // userToScooters[msg.sender][deletedIdx] =  userToScooters[msg.sender][deletedIdx - 1];\n        // userToScooters[msg.sender].pop();\n    }\n\n    function addScooter(string memory name, string memory geoId) public {\n        scooters.push(\n            Scooter({\n                id: scooterCount,\n                name: name,\n                geoId: geoId,\n                isRent: false,\n                rentBy: address(0),\n                rentStartTime: 0\n            })\n        );\n        scooterCount++;\n    }\n\n     function getScooterIdxFromArray(uint256 id, Scooter[] memory scootersArr ) public pure returns (uint256) {\n        uint256 scooterIdx;\n        bool isFindScooter = false;\n        for (uint256 i = 0; i < scootersArr.length; i++) {\n            if (scootersArr[i].id == id) {\n                isFindScooter = true;\n                scooterIdx = i;\n                break;\n            }\n        }\n        if (!isFindScooter) {\n            revert(\"No Scooter\");\n        }\n        return scooterIdx;\n    }\n\n\n    function getScooterIdx(uint256 id) public view returns (uint256) {\n        uint256 scooterIdx;\n        bool isFindScooter = false;\n        for (uint256 i = 0; i < scooters.length; i++) {\n            if (scooters[i].id == id) {\n                isFindScooter = true;\n                scooterIdx = i;\n                break;\n            }\n        }\n        if (!isFindScooter) {\n            revert(\"No Scooter\");\n        }\n        return scooterIdx;\n    }\n\n    function getUserScooters(address userId)\n        public\n        view\n        returns (Scooter[] memory)\n    {\n        return userToScooters[userId];\n    }\n\n    function getScooter(uint256 id) public view returns (Scooter memory) {\n        uint256 scooterIdx = getScooterIdx(id);\n        return scooters[scooterIdx];\n    }\n\n    function getScooters() public view returns (Scooter[] memory) {\n        return scooters;\n    }\n\n    function deleteScooter(uint256 id) public {\n        uint256 scooterIdx = getScooterIdx(id);\n        require(scooters[scooterIdx].isRent == false, \"Scooter rented\");\n        scooters[scooterIdx] = scooters[scooters.length - 1];\n        scooters.pop();\n    }\n\n    function editScooter(uint256 id, Scooter memory _newScooter) public {\n        uint256 scooterIdx = getScooterIdx(id);\n        scooters[scooterIdx] = _newScooter;\n    }\n}\n",
  "sourcePath": "D:\\Work table\\institute2022\\nir\\contract\\contracts\\ScooterRent.sol",
  "compiler": {
    "name": "solc",
    "version": "0.8.4+commit.c7e474f2.Emscripten.clang"
  },
  "schemaVersion": "3.4.7",
  "updatedAt": "2022-05-11T08:58:13.411Z",
  "networkType": "ethereum",
  "devdoc": {
    "kind": "dev",
    "methods": {},
    "version": 1
  },
  "userdoc": {
    "errors": {
      "OnlyNotRentedScooter()": [
        {
          "notice": "You can only rent a free scooter"
        }
      ]
    },
    "kind": "user",
    "methods": {},
    "version": 1
  }
}